:020000040800F2
:10000000B808002045020008811C0008711B000888
:10001000A51B0008A5180008E32400080000000044
:10002000000000000000000000000000591E000851
:10003000F119000800000000091D00086D1F0008EC
:100040005F0200085F0200085F0200085F0200080C
:100050005F0200085F0200085F0200085F020008FC
:100060005F0200085F0200085F0200085F020008EC
:100070005F0200085F0200085F0200085F020008DC
:100080005F0200085F0200085F0200085F020008CC
:100090005F0200085F0200085F0200085F020008BC
:1000A0005F0200085F0200085F0200085F020008AC
:1000B000D91F00085F020008B12000085F02000895
:1000C0005F0200085F0200085F0200085F0200088C
:1000D0005F020008C12200085F0200085F020008FA
:1000E0005F0200085F0200085F0200085F0200086C
:1000F0005F0200085F0200085F0200085F0200085C
:100100005F0200085F0200085F0200085F0200084B
:100110005F0200085F0200085F0200085F0200083B
:100120005F0200085F0200085F0200085F0200082B
:1001300000F002F800F076F80AA090E8000C824483
:100140008344AAF10107DA4501D100F06BF8AFF260
:10015000090EBAE80F0013F0010F18BFFB1A43F0A5
:1001600001031847083C0000283C00000A444FF0F7
:10017000000C10F8013B13F0070408BF10F8014B06
:100180001D1108BF10F8015B641E05D010F8016B4B
:10019000641E01F8016BF9D113F0080F1EBF10F8AF
:1001A000014BAD1C0C1B09D16D1E58BF01F801CBD2
:1001B000FAD505E014F8016B01F8016B6D1EF9D555
:1001C0009142D6D37047000000230024002500266A
:1001D000103A28BF78C1FBD8520728BF30C148BFAA
:1001E0000B607047662903F0FB84642900F0A88047
:1001F000752900F0A580782900F0DE80632900F0E1
:100200004184732900F04684002070471FB500F038
:1002100057FC04000020002103F012FBE0601FBD2A
:1002200010B510BD00F068FD1146FFF7EFFF02F0BA
:100230001BFA00F086FD03B4FFF7F2FF03BC02F0E7
:1002400076F900000948804709480047FEE7FEE7C5
:10025000FEE7FEE7FEE7FEE7FEE7FEE7FEE7FEE776
:1002600004480549054A064B70470000711F000805
:1002700031010008B8020020B8080020B8040020AE
:10028000B8040020704700000FB4044910B503AA59
:10029000029800F003FC10BC5DF814FB280000205D
:1002A00070B5044685690068C10601D5302600E0B6
:1002B0002026C00707D070BDD4E901213046904701
:1002C000206A401C20626D1EF6D570BD70B50446D4
:1002D00085690078C00707D170BDD4E901212020CD
:1002E0009047206A401C20626D1EF6D570BD70B527
:1002F0000C460546012A05D02878800600D5EA6913
:10030000002302E0012305E05B1C934202D2E05C83
:100310000028F9D1A869E618C01AA861286A18440B
:1003200028622846FFF7BCFF04E0D5E9012114F854
:10033000010B9047B442F8D32846FFF7C7FF70BDC2
:100340002DE9F0410646002410687529314616A5AE
:1003500010D0AFF30080002802DA404213A507E076
:1003600031688A0701D512A502E0490704D511A515
:10037000012401E0AFF3008000210A2206F12407E6
:1003800009E0B0FBF2FCB0FBF2F302FB1C003030E2
:1003900078541846491C0028F3D123462A46304693
:1003A000BDE8F04100F0FCB8000000002D000000A6
:1003B0002B0000002000000070B504460D462146C9
:1003C0001068AFF300802188090502D50F4A7A44EE
:1003D00002E00E4A7A440E32002104F1240305E0C3
:1003E00000F00F060009965D5E54491C0028F7D105
:1003F00020780023000704D5702D02D009B1022314
:1004000011322046BDE8704000F0CAB81238000032
:100410002DE9F05F894604464FF0000ADFF874B119
:10042000FB44C0F820A02046E1688847002874D02B
:10043000252806D0D4E901219047206A401C20627B
:10044000F1E700265F462046E168884720280546F8
:1004500007DB312D05D2781910F8200C08B10643BE
:10046000F1E7B00701D526F00406C4F81CA0002768
:10047000C4F818A02A2D09D0284602F051F838B344
:1004800004EB8708303DC8F8185019E059F8041BF0
:10049000204604EB87029161E1688847012F0546F9
:1004A00018D1E069002820DA26F020061DE0D8F8EF
:1004B000180000EB800005EB40003038C8F8180049
:1004C0002046E1688847054602F02AF80028EED168
:1004D000012F0AD02E2D08D12046E16888477F1CC5
:1004E0000546022F46F02006C4DBA069002803DA87
:1004F000404246F00106A061F00701D026F0100648
:100500006C2D0BD0682D09D04C2D39D06A2D35D0EB
:10051000742D35D07A2D33D016E038E0E1682F46BF
:1005200020468847B842054609D16C2F26D04FF4A3
:100530008060E168064320468847054604E06C2F4A
:100540001AD04FF4807006430DB3A5F1410019286D
:1005500002D8203546F400664A46294620462660E1
:100560004E46FFF73FFE80B101280BD0F61D26F066
:10057000070000F1080956E74020E4E78020D8E7AB
:100580000020D6E706F104094DE7284652E7206A25
:10059000BDE8F09FE837000070477047704770472C
:1005A0002DE9F0470D4699469246044600F124088D
:1005B0000168880604D5E06921F01001216000E09F
:1005C0000120A84201DD471B00E00027A1697A193C
:1005D00002EB0900081AA0612078C00602D4204668
:1005E000FFF75EFE002608E0D4E901211AF80600B4
:1005F0009047206A401C761C20624E45F4DB207830
:10060000C0060AD52046FFF74BFE06E0D4E90121DB
:1006100030209047206A401C2062381EA7F1010755
:10062000F4DC07E0D4E9012118F805009047206ABE
:10063000401C2062281EA5F10105F3DC2046FFF7CF
:1006400045FE2078000602D50220BDE8F087012093
:10065000FBE770472DE9FF4F0C461E464FF0FF3772
:100660008BB0D2E90001DDF860800A908A46C1F3C0
:100670000A5505B93D46002108464FF00000BAF181
:10068000000F00F4400005DA00EB80004FF4400159
:1006900001EA50004FEA9059B9F1010F00DDB94667
:1006A0000A9850EA4A000ED044F61050A5F2FF35E1
:1006B00045432F14B8F1000F1ED07542291E1EDDD0
:1006C000C9F100021CE0B8F1010F4FF0000001D0A9
:1006D000302103E0F24305E02154401CB042FBDB33
:1006E00030460022002121540B99C1F80880C1E94D
:1006F00000200FB0BDE8F08FBD1B6D1CDEE74A4641
:1007000000DA694206A800F07DFA06AB93E807001C
:1007100003AB83E8070050460A9900F05BFB8DE8C5
:100720000700A0F500501F3800900398002D0ADD47
:1007300042F21F014A460844002303A90390684679
:1007400000F0C4FD09E0A0F500504A461F38002320
:1007500003A90390684600F0CEFD8DE80700000471
:10076000000C03D04FF0FF30410800E01046B8F114
:10077000000F03D00022009215461EE0751E05D41E
:1007800000F0A2F9303262556D1EF9D5B346012250
:10079000084302D000227F1C04E02078302801D1D9
:1007A00000227F1E002A099784D01DE0112D07DA50
:1007B00000F08AF9303262556D1C50EA0102F5D121
:1007C000084302D00098C8B10EE00021681E05E081
:1007D000235C625C63542254401E491C8142F7DB57
:1007E000AB46A81B401E0990002004F80B000B9894
:1007F000099AC0F80880C0E9002B7AE711264FF06B
:10080000000857E72DE9F04F88460446D21D22F034
:10081000070191B0D1E90001CDE90A0101F06CFEB8
:1008200002460B98C00F01D02D2007E020688107F9
:1008300001D52B2002E0202101EAC000032A099003
:1008400001D0072A05DB03464146204600F09AF90D
:100850000BE12078800601D5E06900E00620B8F1C0
:10086000650F814606D0B8F1660F18D0B8F1670F52
:1008700070D131E00020B9F1110F009001DB11239C
:1008800001E009F101030AAA01A90CA8FFF7E2FEA1
:10089000DDE90C70002609F10105834647E00120DF
:1008A0004B4600904FF000470AAA01A90CA8FFF799
:1008B000D1FEDDE90DB00C995D46002610B909F1B5
:1008C00001000D18B9EB050003D4C0F1FF3609F1A2
:1008D0000105A5EB09002BE0B9F1010F01DA4FF09A
:1008E00001090020B9F1110F0090484601DD1123E4
:1008F00000E003460AAA01A90CA8FFF7ABFEDDE958
:100900000C704D4600268346207800070AD4AB457C
:1009100000DA5D4601A8012D04DD411911F8011C22
:10092000302907D04F4502DA17F1040F04DA01200D
:1009300082460FE06D1EEEE7002F02DCED1B3E4409
:1009400003E0781CA84200DD7D1CB81B00F1010A01
:100950004FF000472078000703D4AA4501DB4FF091
:10096000FF3A0021B7F1004F0DF143088DF8431015
:1009700024D002202B23002F01DA7F422D230A21CD
:10098000021EA0F1010000DC5FB197FBF1FC97FBB8
:10099000F1F201FB1C7C17460CF1300C08F801CD7C
:1009A000EEE7A8F1010003702188090501D5452172
:1009B00000E06521A0F1010800F8011C09980FA9C9
:1009C000A1EB0807FF1D00B10120411901EBEA70FE
:1009D000A1693844081A401EA0612078C00602D4DC
:1009E0002046FFF75DFC099828B1D4E90121904722
:1009F000206A401C20622078C00622D52046FFF7DE
:100A00004FFC1EE0002E04DBB34502DD01A8805D33
:100A100000E03020D4E901219047206A401C206288
:100A2000761CAAF101005FEA000A0AD100F048F83A
:100A3000C0680168405CD4E901219047206A401CED
:100A40002062281EA5F10105DCDC07E0D4E90121C4
:100A500018F8010B9047206A401C2062381EA7F14D
:100A60000107F3DC2046FFF731FC032011B041E61B
:100A700010B5436913B1AFF3008001E0FFF737FC15
:100A8000012010BD127800F124010A7000224A7082
:100A90000122EDE711684FF0FF32E9E7074B70B52F
:100AA0000D467B4400F05BF80446284600F01CF934
:100AB00010B14FF0FF3070BD204670BD1F1B00000D
:100AC000004870477402002030B5B0F10A024FEAC6
:100AD000900E71F100034EEA817EB0EB0E0061EBE7
:100AE00091014FEA101E4EEA017E10EB0E0041EB21
:100AF00011114FEA102E4EEA016E10EB0E0041EB81
:100B000011214FEA104E4EEA014E10EB0E0041EB60
:100B10001141401841F100014FEAD00040EA417014
:100B20004FEAD10110EB80054FEA810444EA90744A
:100B300044EB01046D1944EB0404521BA3414FF034
:100B4000000348BF0A3200D530BD401C41F100010E
:100B500030BD000001694A1C02610878704700B589
:100B60008FB0CDE901310021059105497944CDE9E6
:100B7000031011466846FFF74BFC0FB000BD0000A4
:100B8000E5FFFFFF2DE9F0411F46044603260168FB
:100B9000072A01F4006004DB08B116A505E016A5DC
:100BA00003E008B115A500E015A521F010002060B4
:100BB000A069C01EA0610FB1401EA0612046FFF7D2
:100BC0006FFB4FB1D4E9012138469047206A401CA1
:100BD0002062C01C206206E0206AFAE7D4E9012105
:100BE00015F8010B9047761EF8D22046FFF76EFBF2
:100BF000BDE8F0814E414E006E616E00494E4600E8
:100C0000696E66002DE9F047814616468AB0354880
:100C100078440DC88DE80D0032487844801C03AC40
:100C20000DC884E80D0041F69B300844372190FB45
:100C3000F1F290FBF1F5A5F1800501FB12041B3CDC
:100C400002D56442012000E00020DFF898A0804631
:100C50000027FA44AAF1BE0A0EE0E0070AD03246A5
:100C6000684607EB470101230AEB810100F043FBD3
:100C70008DE8070064107F1C002CEED1194F7F44D3
:100C8000AE3F19E0E80715D007EB04100DF1180A84
:100C900090E80E008AE80E00C068F04201D1981971
:100CA00008903246012306A903A800F024FB03ABF9
:100CB00083E807006D10641C002DE3D14FF00103A1
:100CC00032466946B8F1000F03A802D000F0FEFAE0
:100CD00001E000F010FBC9E90001C9F808200AB0E2
:100CE000BDE8F08788300000007B00F0800070478E
:100CF00000487047540200207546FFF7F9FFAE46E2
:100D000005006946534620F00700854618B020B517
:100D1000FFF7A6FABDE820404FF000064FF00007AD
:100D20004FF000084FF0000B21F00701AC46ACE893
:100D3000C009ACE8C009ACE8C009ACE8C0098D4600
:100D4000704710B50446AFF300802046BDE8104060
:100D5000FFF771BA4FF0013C50F8042B51F8043BF7
:100D60009A4221D1A2EB0C03934313EACC1317D17F
:100D700050F8042B51F8043B9A4215D1A2EB0C0316
:100D8000934313EACC130BD150F8042B51F8043BD6
:100D90009A4209D1A2EB0C03934313EACC13DBD0A4
:100DA0004FF00000704700BFD01A01BAB1FA81F1CC
:100DB00001F0180122FA01F0CB40C1F12001DBB2B1
:100DC000C0B2C01A2CFA01F3D11A914311EAC3112F
:100DD000E6D170475FEA400C08BF91F0000F4FEA80
:100DE0008C234FEAC12243EA51514FEA1C5018BFED
:100DF00000F5F0404FEA300018BF41F000415FEAD3
:100E00006C5C00F02980BCF1FF3F08BF40F08040DF
:100E10007047130C06BF12044FF0100C4FF0000C7B
:100E2000130E04BF12020CF1080C130F04BF1201C1
:100E30000CF1040C930F04BF92000CF1020CD30FC1
:100E400004BF52000CF1010C11464FF00002A0F15A
:100E50001F00A0EB0C00704711F0004F08BF704757
:100E600031F000413FF4D5AF0B0C06BF09044FF041
:100E7000100C4FF0000C0B0E04BF09020CF1080C13
:100E80000B0F04BF09010CF1040C8B0F04BF890088
:100E90000CF1020CCB0F04BF49000CF1010CCCF19A
:100EA0002003A0EB0C0022FA03F302FA0CF241EA51
:100EB000030100F10100704720F07F4C80EA03003D
:100EC00023F07F47ACEB070303F57C5300F00040B1
:100ED00003F1FF032DE980494FEA154B09B44FEAAE
:100EE000144325EA0B4E24EA03480FF2042606EBCE
:100EF000132749083E785FEA320203FB0667C7F50D
:100F0000000707FB06F64FEA54374FEAD64606F1CC
:100F1000020607FB066CCCF1005C4FEA1C472CEA8A
:100F2000074C07FB06F40CFB06F504EB15464FEAED
:100F3000961634BF00204FF000404FEAD13706FB31
:100F400007FC4FEA1C4C0CFB0BF7D21B03FB0CF706
:100F500061EB07010CFB0EF7B0EB074072EB174299
:100F60000CFB08F734BFA2EB0742B2EB074261EB80
:100F700017414FEA0C444FEA910706FB07FC4FEA82
:100F80001C4C0CFB0BF7B0EBC74072EB573203FB6A
:100F90000CF734BFA2EBC742B2EBC74261EB57314B
:100FA0000CFB0EF7B0EBC70072EB57720CFB08F7A7
:100FB00034BFA2EBC702B2EBC70261EB5771039FCC
:100FC0004FEA816141EA921104EBCC044FEAD13738
:100FD0004FEA826206FB07FC42EA90124FEA806009
:100FE0004FEA1C4C0CFB0BF7D21B03FB0CF761EB1D
:100FF00007010CFB0EF7B0EB074072EB17420CFB3E
:1010000008F734BFA2EB0742B2EB074261EB17418E
:101010004FEA8C554FEA910704EB9C2406FB07FC32
:101020004FEA1C4C0CFB0BF7B0EBC74072EB57328E
:1010300003FB0CF734BFA2EBC742B2EBC74261EB34
:1010400057310CFB0EF7B0EBC70072EB57720CFB7D
:1010500008F734BFA2EBC702B2EBC70261EB5771CE
:1010600015EB4C254FEA816141EA92114FEA826209
:101070004FEAD13742EA901206FB07FC44F1000424
:101080004FEA80604FEA1C4C0CFB0BF7D21B03FBB2
:101090000CF761EB07010CFB0EF7B0EB074072EBAE
:1010A00017420CFB08F734BFA2EB0742B2EB074232
:1010B00061EB174115EB1C154FEA813141EA924172
:1010C0004FEA823242EA90424FEA80304FEA0C7691
:1010D00044F1000448EA03434EEA0B484FF0000E87
:1010E000B2EB080C71EB030724BF624639464EEBA6
:1010F0000E0E4FF0000B0018524149414BEB0B0B09
:10110000B2EB080C71EB03077BF1000B24BF6246C6
:1011100039464EEB0E0E4FF0000B0018524149417C
:101120004BEB0B0BB2EB080C71EB03077BF1000BE5
:1011300024BF624639464EEB0E0E51EA020718BF35
:1011400046F0010616EB0E7655F1000254F100014F
:1011500003D5BDE88901BDE80088BDE88901BDE887
:101160000048B619524141EB0101A3F10103704758
:1011700080807F7E7D7C7B7A7978777676757473D4
:10118000727171706F6E6E6D6C6C6B6A6A69686893
:10119000676666656464636362616160605F5F5E29
:1011A0005E5D5D5C5C5B5B5A5A595958585757569F
:1011B0005655555554545353525252515150505004
:1011C0004F4F4F4E4E4D4D4D4C4C4C4B4B4B4A4A56
:1011D0004A4949494848484747474746464645459A
:1011E00045444444444343434342424242414141D3
:1011F000002B9C4630D477002BD01CB54FEA370724
:1012000003B44FF010004FF01001BAF1000F06D0F8
:10121000BCF1000FDCBF40F0080040F008014FF0C7
:1012200000000FBCBDE810400BF1010BBBF1010F3A
:1012300008BF5FEA170722BF12F1010211F1010195
:101240004FF0004143F1000300F0004043EA00008A
:101250007047F9D35708D0E746EA064613F1400F26
:101260004FEA16461FDD13F1200FDFBF16430A4673
:10127000002120335B42BED0C3F1200746EA064678
:1012800002FA07F74FEA164646EA0706C3F12007B7
:1012900022FA03F201FA07F721FA03F14FF00003F3
:1012A00042EA0702A7E746EA020646EA06464FEA8E
:1012B000164646EA0106BCBF46EA0646360C4FF023
:1012C00000034FF000024FF0000194E72DE9804C3D
:1012D0009A46934670B491E8380007C831EA400C4A
:1012E00048BF34EA430C03D5FFF7E6FDFFF780FF64
:1012F000F0BCBDE8008C2DE9804C9A46934670B452
:1013000091E8380007C810F0804F08BF13F0804FF5
:1013100003D100F005F8FFF76BFFF0BCBDE8008CCF
:1013200020F07F4780EA030023F07F4C07EB0C039B
:10133000A3F57C5300F00040A3F1FE0392F0000FF0
:1013400000F0B38095F0000F00F077802DE901499F
:101350004FEA11404FEA144621EA004800FB06FC20
:1013600024EA064708FB06F607FB08F800FB07F728
:1013700018EB06484CEB164C4FEA124B18EB07489B
:101380004FEA15464CEB174022EA0B4E0BFB06FCCE
:1013900025EA06470EFB06F607FB0EFE0BFB07F7DA
:1013A0001EEB064E4CEB164C4FF000061EEB074EA4
:1013B0004CEB174B18EB0B0840F1000018EB0E0B31
:1013C00058EB000840F100008F1A4FF000013CBFBD
:1013D000C943661B14BFB5EB040C00213CBFC943D5
:1013E000F61B4FEA17444EEA8E0E27EA04454FEAF1
:1013F0001C4704FB07622CEA074C05FB07F70CFBB4
:1014000005F604FB0CFC16EB074642EB174216EB05
:101410000C4642EB1C421BEB060658EB0202414114
:1014200046EA9E0601D5BDE80189B619524141EB55
:101430000101A3F10103BDE801894FEA14454FEA18
:10144000114724EA054621EA074C05FB07F406FB91
:1014500007F70CFB06F105FB0CFC11EB074144EB15
:1014600017444FEA124711EB0C4144EB1C4422EAAB
:10147000074C05FB07F206FB07F70CFB06F605FB1E
:101480000CFC16EB074642EB174216EB0C4642EB00
:101490001C456A1854F1000148BF7047B619524103
:1014A00041EB0101A3F10103704795F0000F37D024
:1014B0004FEA11424FEA144721EA024624EA074C58
:1014C00002FB07F106FB07F70CFB06F402FB0CFC22
:1014D00014EB074441EB17414FEA154714EB0C445A
:1014E00041EB1C4125EA074C02FB07F506FB07F719
:1014F0000CFB06F602FB0CFC16EB074645EB17450A
:1015000016EB0C4645EB1C42121951F1000148BF85
:101510007047B619524141EB0101A3F10103704735
:101520004FEA14454FEA114724EA054621EA074CE1
:1015300005FB07F106FB07F70CFB06F24FF0000670
:1015400005FB0CFC12EB074241EB174112EB0C427E
:1015500051EB1C4148BF7047921841EB0101A3F1C8
:101560000103704721B1826842F00102826003E00A
:10157000826822F0010282607047000010B50446C4
:101580001248844208D10121401500F0EBFB0021F4
:10159000601500F0E7FB17E00D48844208D10121F7
:1015A000001500F0DFFB0021201500F0DBFB0BE055
:1015B0000848844208D10121C80300F0D3FB002170
:1015C0004FF4004000F0CEFB10BD000000240140AD
:1015D00000280140003C0140014600208A6802F0DA
:1015E00004020AB1012000E0002070470146C86CE7
:1015F00080B270470246002013680B400BB10120F7
:1016000000E000207047014600208A6802F00802CE
:101610000AB1012000E000207047000030B502460A
:101620000020002350680F4C20400D790C6844EADC
:1016300005242043506090680B4C2040D1E90254AF
:101640002C434D7944EA450420439060D06A20F44D
:1016500070000C7C641EE4B2234340EA0350D06265
:1016600030BD0000FFFEF0FFFDF7F1FFF0B50446CE
:101670000D4600200021092D11DDE068A5F10A06C4
:1016800006EB4607072606FA07F18843A5F10A0686
:1016900006EB460603FA06F10843E0600CE0206919
:1016A00005EB4507072606FA07F1884305EB4506D3
:1016B00003FA06F108432061072A0FDA606B561E11
:1016C00006EB86071F2606FA07F18843561E06EB2F
:1016D000860605FA06F10843606322E00D2A0FDA58
:1016E000206BD61F06EB86071F2606FA07F18843F4
:1016F000D61F06EB860605FA06F10843206310E0C4
:10170000E06AA2F10D0606EB86071F2606FA07F12E
:101710008843A2F10D0606EB860605FA06F108439A
:10172000E062F0BD816841F008018160704721B13D
:10173000826842F4A002826003E0826822F4A00280
:1017400082607047816841F0040181607047000049
:101750002DE9F05F044600250026A9460EE000F0C2
:10176000D3F925480088054424480088064405200C
:1017700000F002FF09F1010000F0FF09A145EEDBD6
:10178000B5FBF4F7384602F0CDF91D490860B6FB09
:10179000F4F7384602F0C6F91A490860184800689C
:1017A00002F094F907464FF06632174B02F090F8BA
:1017B000824602F05BF8124908601248006802F0A5
:1017C00085F907464FF066320F4B02F081F88246EA
:1017D00002F04CF80B4908600948006802F076F9FD
:1017E00007463A460B4609A0FEF74EFD0020094980
:1017F0000860BDE8F09F0000040000200600002003
:10180000080000200C00002066664A3F25660D0A8D
:10181000000000000000002000B587B001214FF457
:10182000017000F08FFA4FF4004000F06FFA0C20C6
:10183000ADF8040000208DF8070001A9174800F05A
:10184000D8F81748FFF79AFE002002908DF80C0098
:101850008DF80D004FF460200490002005900120C9
:101860008DF8180002A90E48FFF7D8FE01210C4898
:10187000FFF778FE0A48FFF755FF00BF0848FFF75B
:10188000C2FE0028FAD10648FFF75CFF00BF0448FB
:10189000FFF7A2FE0028FAD107B000BD0008014002
:1018A0000024014000BFFEE730B504460D46002C81
:1018B00003DD20200A49086005E0002C03DA20201F
:1018C0000749091D08600748006820440649086068
:1018D000002006490860284600F070FC30BD00007A
:1018E000100C0140780100207401002084010020C8
:1018F00030B504460D46002C03DD40200A4908603F
:1019000005E0002C03DA40200749091D086007485C
:1019100000682044064908600120064908602846FE
:1019200000F076FC30BD0000100C0140800100206A
:101930007C0100208401002030B505460C4610488B
:10194000056000680F490968884203D100200E49EC
:10195000087013E00A4800680A490968884203DDF4
:1019600020200A49086003E020200849091D08607A
:10197000002007490860204600F020FC30BD000030
:10198000740100207801002088010020100C014023
:101990008401002030B505460C46104805600068FB
:1019A0000F490968884203D100200E49087013E0EE
:1019B0000A4800680A490968884203DD40200A494C
:1019C000086003E040200849091D0860012007491C
:1019D0000860204600F01CFC30BD00007C010020A7
:1019E0008001002088010020100C014084010020AB
:1019F00070472DE9F0410246002500260020002313
:101A00000024002791F803C00CF00F0591F803C0E3
:101A10000CF0100CBCF1000F03D091F802C04CEA9E
:101A2000050591F800C0BCF1000F31D0146800200A
:101A30002BE04FF0010C0CFA00F3B1F800C00CEAF7
:101A400003069E4220D183004FF00F0C0CFA03F7DF
:101A5000BC4305FA03FC4CEA040491F803C0BCF152
:101A6000280F06D14FF0010C0CFA00FCC2F814C08C
:101A70000AE091F803C0BCF1480F05D14FF0010C0A
:101A80000CFA00FCC2F810C0401C0828D1D3146026
:101A9000B1F800C0BCF1FF0F34DD546800202EE027
:101AA00000F1080C4FF0010808FA0CF3B1F800C07F
:101AB0000CEA03069E4221D183004FF00F0C0CFA72
:101AC00003F7BC4305FA03FC4CEA040491F803C095
:101AD000BCF1280F05D100F1080C08FA0CF8C2F887
:101AE000148091F803C0BCF1480F07D100F1080C35
:101AF0004FF0010808FA0CF8C2F81080401C0828C2
:101B0000CED35460BDE8F08110B507230122022135
:101B10001448FFF7ABFD01211248FFF708FE00BF94
:101B200002211048FFF766FD0028F9D00D48FFF7A5
:101B30005DFD0D4908800723012203210948FFF7B5
:101B400095FD01210748FFF7F2FD00BF022105487E
:101B5000FFF750FD0028F9D00248FFF747FD034981
:101B6000088010BD00240140040000200600002071
:101B700000BFFEE730B5C3F1040401FA04F41443D6
:101B80002501064C44F82050054C24680125854069
:101B90002C434FF0E025C5F8004130BD00E400E0E3
:101BA00000E100E000BFFEE710B5B1F57A7F04D197
:101BB000B0F5E96F01DD4FF4E960C3004B435B1EF4
:101BC0004FF0E02463610023A3610123236100BF80
:101BD0004FF0E0231A6902F480331BB902F00103CD
:101BE000002BF5D100234FF0E0242361A36110BD49
:101BF00000B52148806940F005001F4988611F48F1
:101C0000006820F0FF001D4908600846006840F0A9
:101C1000EE0008601848C06940F001001649C8612C
:101C20003F20890408850846008840F004000880A9
:101C30000846808940F0010088814FF4A0630222A9
:101C400000211C20FFF796FF4FF08040008B20F012
:101C500003004FF0804108830846008B40F060008D
:101C600008830846008B20F4407008830846008BE8
:101C700040F4C040088300BD00100240000801404D
:101C80007047000070B5002100230F22C47804B310
:101C9000154C246804F4E064C4F5E064210AC1F141
:101CA0000403CA40447804FA03F1847814402143C1
:101CB00009010E4C0678A155047804F01F05012493
:101CC000AC4005786D11AD0005F1E025C5F8004187
:101CD00009E0047804F01F050124AC40044D0678A7
:101CE000761145F8264070BD0CED00E000E400E000
:101CF00080E100E002490143024A116070470000A0
:101D00000000FA050CED00E07047000001460020DD
:101D1000034A506820F44040084350607047000078
:101D20000010024029B1064AD2690243044BDA612D
:101D300004E0034AD2698243014BDA617047000034
:101D40000010024029B1064A92690243044B9A618D
:101D500004E0034A92698243014B9A617047000094
:101D60000010024029B1064AD2680243044BDA60EF
:101D700004E0034AD2688243014BDA6070470000F6
:101D80000010024030B500210022002400232D4D18
:101D90006D6805F00C0121B1042905D0082923D173
:101DA00005E0294D056022E0274D05601FE0254D27
:101DB0006D6805F47012234D6D6805F480340225BA
:101DC00005EB92421CB9214D554305600BE01D4DBA
:101DD0006D6805F400351DB11C4D5543056002E0EA
:101DE000194D5543056002E0174D056000BF00BF67
:101DF000144D6D6805F0F0010909154D6B5C05681F
:101E0000DD4045600F4D6D6805F4E061090A104D35
:101E10006B5C4568DD4085600A4D6D6805F4605176
:101E2000C90A0B4D6B5C4568DD40C560054D6D68AA
:101E300005F44041890B074D6B5CC568B5FBF3F5B4
:101E4000056130BD0010024000127A0000093D001B
:101E50002E0000203E000020704710B500F002F870
:101E600010BD00000CB500200190009033480068C0
:101E700040F480303149086000BF3048006800F409
:101E8000003000900198401C0190009818B901980A
:101E9000B0F5A06FF1D12948006800F4003010B10E
:101EA0000120009001E0002000900098012843D11B
:101EB0002348006840F01000214908600846006887
:101EC00020F0030008600846006840F00200086047
:101ED0001A48406819494860084640684860084602
:101EE000406840F4806048600846406820F47C10F8
:101EF00048600846406840F4E810486008460068BA
:101F000040F08070086000BF0C48006800F000706E
:101F10000028F9D00948406820F0030007494860CC
:101F20000846406840F00200486000BF034840682F
:101F300000F00C000828F9D10CBD00000010024090
:101F400000200240042808D14FF0E021096941F047
:101F500004014FF0E022116107E04FF0E021096930
:101F600021F004014FF0E02211617047704700003A
:101F700010B51348006840F0010011490860084698
:101F80004068104908400E494860084600680E49FC
:101F900008400B4908600846006820F4802008606B
:101FA0000846406820F4FE0048604FF41F00886037
:101FB000FFF753FF4FF000600449086010BD0000B8
:101FC000001002400000FFF8FFFFF6FE08ED00E001
:101FD00000B500F089FA00BD4FF08040008A00F0A3
:101FE0000100002852D02A48006810B1012849D1C8
:101FF00024E02848006800F0200028B12648006846
:10200000401C2549086004E023480068401E22491E
:102010000860214800682149096888420DD14FF0C5
:102020008040008820F001004FF0804108800020AF
:102030001B49087001201B49086000BF1548006853
:1020400000F0400028B118480068401C164908609C
:1020500004E015480068401E1349086012480068F3
:102060001249096888420DD14FF08040008820F065
:1020700001004FF0804108800020094908700120CC
:102080000849086000204FF0804108827047000036
:10209000840100200C0C0140780100207401002014
:1020A0008801002000000020800100207C01002029
:1020B00010B50C48008800F0010058B10A490869C1
:1020C000804700200749143108804FF47A70054991
:1020D0001C3108800348008820F001000149088075
:1020E00010BD0000100800408000002021B10288CF
:1020F00042F00102028004E002884FF6FE731A40AB
:10210000028070471AB183890B43838102E083897F
:102110008B43838170470000002202881D4B984248
:102120000ED01D4B98420BD0B0F1804F08D01B4B06
:10213000984205D01A4B984202D01A4B984204D1CB
:102140004FF68F731A404B881A43174B984207D0AB
:10215000164B984204D04FF6FF431A40CB881A43DF
:1021600002808B8883850B8803850A4B98420BD0AD
:10217000094B984208D00E4B984205D00D4B98421F
:1021800002D00D4B984201D10B7A03860123838242
:1021900070470000002C0140003401400004004062
:1021A00000080040000C00400010004000140040F7
:1021B00000400140004401400048014010B5044681
:1021C000142C00DA1424114890FBF4F0401E4FF058
:1021D000804188850846808D401088864FF47A714A
:1021E0000A20FFF7E1FC4FF08040008C40F0010036
:1021F0004FF0804108840846008C20F010000884CD
:102200000846008840F00100088010BD40420F00E1
:1022100010B50446142C00DA1424114890FBF4F095
:10222000401E4FF0804188850846808D4010088709
:102230004FF47A710A20FFF7B7FC4FF08040008C12
:1022400040F010004FF0804108840846008C20F0D8
:10225000010008840846008840F00100088010BD95
:1022600040420F007FB505460C4601210420FFF7D0
:1022700059FDADF80850ADF804400020ADF80A0053
:10228000ADF8060001A90D48FFF746FF01224121E4
:102290000A48FFF737FF1E208DF8000003208DF855
:1022A00001008DF8020001208DF803006846FFF759
:1022B000E9FC01210148FFF719FF7FBD000800403C
:1022C00010B540F225511D4800F04AF810B31B48E4
:1022D00000F002F9C4B21A48008800F40040C8B9FE
:1022E0001748008800F4804060B10A2C03D0002019
:1022F0001349088020E01248008840F4004010494B
:10230000088019E00D2C06D10D48008840F480406B
:102310000B49088010E00A480088C0F30D00094905
:102320000C5407480088401C05490880084600886E
:10233000C72801DD0020088010BD000000380140E2
:102340002C0000208C01002021B1828942F400522F
:10235000828104E082894DF6FF731A4082817047C2
:1023600070B50246002400230025002040F66A16BE
:10237000B14200D100BFC1F3421501F01F03012695
:1023800006FA03F3012D02D19689334006E0022DAF
:1023900002D1168A334001E0968A33400C1201269E
:1023A00006FA04F41688344013B10CB1012000E0A1
:1023B000002070BDF0B50346002400260025002053
:1023C00040F66A17B94200D100BF1846C1F3421463
:1023D00001F01F06012707FA06F5012C01D10C3088
:1023E00004E0022C01D1103000E014301AB107686B
:1023F0002F43076002E00768AF430760F0BD0000AD
:102400002DE9F04786B005460E460024A24600BFDF
:10241000A1460027B08900B100BF2F462C8A4CF698
:10242000FF700440F08804432C82AC894EF6F31010
:102430000440B08831890843718908430443AC8162
:10244000AC8A4FF6FF400440B0890443AC8201A837
:10245000FFF798FC1F48874202D1DDF810A001E089
:10246000DDF80CA0A88900F4004040B10AEBCA00D6
:1024700000EB0A1031684900B0FBF1F807E00AEB05
:10248000CA0000EB0A1031688900B0FBF1F8642043
:10249000B8FBF0F004012009642101FB1089A88930
:1024A00000F4004040B1322000EBC900B0FBF1F075
:1024B00000F00700044308E0322000EB091064211B
:1024C000B0FBF1F000F00F0004432C8106B0BDE832
:1024D000F08700000038014001468888C0F30800FA
:1024E000704700BFFEE700004FF000600149086040
:1024F0007047000008ED00E0490050EAC12018BF15
:1025000004204A0D18BF40F0010040F2FF72B2EB08
:10251000515F08BF40F00200012808BF0520704746
:1025200030380A2801D20120704700207047014648
:1025300000BF704710B56FF00400FFF703FD0A48B5
:1025400000680A49B0FBF1F00949087008460078B4
:1025500000EB4001C1EBC0104FF6FF7101EAC00073
:102560000449088010BD00001000002000127A000D
:1025700024000020260000200146114A12884A4308
:102580004FF0E0235A6100229A611A46126942F024
:1025900001021A6100BF4FF0E022106900F0010251
:1025A0001AB100F48032002AF5D04FF0E02212690F
:1025B00022F001024FF0E0231A6100229A61704775
:1025C0002600002000BF054A128802F04002002ABF
:1025D000F9D0C2B2014B1B1D1A8070470038014070
:1025E00000B50020194908601949086019490860B8
:1025F0001949086019490870FFF7EAFC1848806912
:1026000040F04800164988611648006820F47000C0
:10261000144908600846006840F4E0000860202083
:102620001049143108600F48006820F070600D49AF
:1026300008600846006840F0E060086040200949F2
:1026400014310860FFF7D4FA00BD000074010020C7
:10265000780100207C0100208001002088010020FA
:1026600000100240000C01404FF4A060FFF742FB55
:10267000FFF760FF4FF4E13000F014F8FFF7CCF8FB
:102680000648416848208847FFF7AAFF05E004484C
:10269000006810B10A20FFF75BF8F8E7800000201F
:1026A0000000002010B586B00446012144F2040069
:1026B000FFF748FB4FF40070ADF8140003208DF8CD
:1026C000160018208DF8170005A91C48FFF791F98E
:1026D0004FF48060ADF8140004208DF8170005A9B0
:1026E0001648FFF786F925208DF8000003208DF8A5
:1026F00001008DF8020001208DF803006846FFF705
:10270000C1FA01940020ADF80800ADF80A00ADF858
:102710000C00ADF810000C20ADF80E0001A908481F
:10272000FFF76EFE012240F225510548FFF742FEF9
:1027300001210348FFF708FE06B010BD0008014064
:102740000038014030B595B0054613AB12AA09A96F
:10275000284600F019FA044614B1204615B030BDE1
:102760000020149026E0224909689DF8502001EBD2
:10277000C20113AB11AA486801A900F005FA04468A
:102780000CB12046EAE709A901A800F0B7FC60B93E
:102790009DF844009DF84810884201DD0220DDE7E5
:1027A0009DF85000124988750AE09DF85000401CC1
:1027B000C0B214900E48007D9DF850108842D2DCC3
:1027C00000BF0B48007D9DF85010884201D10420C5
:1027D000C4E714A9284600F0B7FA04460CB1204615
:1027E000BCE79DF85000024948750020B6E700009C
:1027F000800000202DE9F0419AB08F48847D007D53
:10280000A04202DC1AB0BDE8F0818B49096801EBF7
:10281000C40106AB07AA486808A900F0B5F900266C
:1028200035E08548018B0120B0400140D9B122211B
:1028300082A0FDF729FD304600F00CFB7E492431D3
:10284000471839467EA0FDF71FFD22217BA0FDF72A
:102850001BFD304600F0FEFA77492431084410A9E8
:1028600041F8260011E0304600F0F4FA72492431B4
:10287000085810A941F826006F48C07D28B910A853
:1028800050F826106FA0FDF7FFFC701CC6B29DF833
:102890001C008642C5DB00F02DFB6748407D0B28FD
:1028A0000DD2DFE800F0060D151E27323F4E5F7295
:1028B00087006149096851F834008047054690E077
:1028C0005D4A126852F8341010988847054688E02F
:1028D000594B1B6853F83420DDE910019047054639
:1028E0007FE0554F3F6857F8343010A807C8984725
:1028F000054676E0DFF840C1DCF800C05CF83470D3
:1029000010A80FC8B84705466BE01498DFF828C137
:102910000090DCF800C05CF8347010A80FC8B8470D
:1029200005465EE0DDE91401DFF80CC1CDE90001E8
:10293000DCF800C05CF8347010A80FC8B847054632
:102940004FE0DDE914121698DFF8ECC0CDE9001273
:102950000290DCF800C05CF8347010A80FC8B847CB
:1029600005463EE0DDE9153217991498DFF8C8C036
:10297000CDE9013203910090DCF800C05CF83470BE
:1029800010A80FC8B84705462BE0DDE916321599A7
:102990001898CDE90232019104901498DFF898C09C
:1029A0000090DCF800C05CF8347010A80FC8B8477D
:1029B000054616E0DDE91623DDE91810CDE902230E
:1029C000CDE90410DDE91401DFF86CC0CDE90001A8
:1029D000DCF800C05CF8347010A80FC8B847054692
:1029E00000BF00BF00F046FA9DF8180001280BD187
:1029F0001148C07D20B9294613A0FDF745FC03E02E
:102A0000294613A0FDF740FC0B4890F8EC0088B174
:102A10000948D0F8F0000A21B0FBF1F201FB1207DF
:102A20000548D0F8F000B0FBF1F83A4641460BA05B
:102A3000FDF72AFC00BFE5E68000002025630000CA
:102A400025730000256C64003D256C753B0D0A0064
:102A50003D305825583B0D0A0000000046756E6356
:102A600074696F6E2052756E2054696D653A2564E5
:102A70002E2531646D730D0A00000000F0B5034689
:102A8000154600200022002600245BE01F782C2F32
:102A900001D104B901221F78292F01D01F780FB965
:102AA00004B950E0002E3AD11F78302F02DB1F7896
:102AB000392F17DD1F782D2F14D01F782B2F11D011
:102AC0001F78612F02DB1F78662F0BDD1F78412FE7
:102AD00002DB1F78462F05DD1F78582F02D01F78A4
:102AE000782F0CD102B12EE01F78612F03DB1F7805
:102AF000203F0F7001E01F780F70491C1FE01F7806
:102B0000222F04D102B11EE00126012417E01F7814
:102B1000202F14D01F782C2F11D0FF2613E01F7800
:102B2000222F00D1002402B10DE044B11F785C2FA8
:102B300002D15B1C471CF8B21F780F70491C471C60
:102B4000F8B25B1CA2E700BF00270F702E70F0BD2B
:102B500010B50446002010700BE020780870641C4B
:102B6000491C1078401C10701078984201DB01203D
:102B700010BD2078202802D020780028EDD1002038
:102B8000087000BFF4E700002DE9FF4F85B08046D4
:102B900089460027002004900390012002904FF006
:102BA000000B002544461DE02078202816D005F0B3
:102BB0007F00052812DA0DB945F0800505F07F0089
:102BC000042803D120782A2800D00EE0207805F0D0
:102BD0007F010DF80100681CC5B202E0852D00D10F
:102BE00003E0641C20780028DED100BF8DB10020F6
:102BF00005F07F010DF8010051A1684600F07EFA52
:102C000018B900210898017002E0012108980170AC
:102C100000254FF0000A444614E0641C0AF101004C
:102C200000F0FF0A2078202802D020782A2809D135
:102C3000204600F0D5F90646282E03D02A2E01D0D2
:102C4000CDF810A02078282802D020780028E4D1E0
:102C50004446049810B10498401C04444FF0000A04
:102C6000002654E0207810B94FF0010A50E0207897
:102C7000282803D116B9781CC7B213E02078292878
:102C800008D13EB917B1781EC7B201E04FF0010A72
:102C900047B93DE02078222804D10EB9012000E098
:102CA0000020064647B9207820282FD0207889F8C0
:102CB000000009F1010929E020782C2804D1012025
:102CC0000290681CC5B214E02078202811D020782A
:102CD00028280ED04DB9BBF1050F06DA20780DF883
:102CE0000B000BF1010000F0FF0B0298401CC0B27A
:102CF0000290012F0AD10298022807D10298401CA5
:102D0000C0B202900398401CC0B20390641CA9E7B3
:102D100000BF0398012809D100200DF80B0008A17D
:102D2000684600F0EBF908B9002003900799039872
:102D30000870002089F80000504609B0BDE8F08F07
:102D4000766F6964000000002DE9F043B5B00546D8
:102D50000F460024002604E000213D488155701CE8
:102D6000C6B20A2EF8DB06E06D1C287818B90120DF
:102D700035B0BDE8F08328782828F5D16D1C61E0D6
:102D800034AA69462846FFF779FE064635449DF881
:102D9000D00020B1012827D0FF284CD149E09DF870
:102DA000000000B333A9684600F025F906460EB1CD
:102DB0000220DDE7204600F04DF825490A31339A1C
:102DC0000A50A1F12400008B0121A1408843204931
:102DD0001A39088304211E480155601CC4B20A2C0C
:102DE00001DD0320C4E726E0684600F0A3F9401C9B
:102DF00000F0FF08204600F02DF815490A3100EBDD
:102E000001094946684600F08AF911481A38018BD1
:102E10000120A040014388B20D491A3908830C48AB
:102E200000F80480601CC4B20A2C01DD03209FE777
:102E300001E002209CE700BF2878292801D02878EB
:102E400000B900E09CE700BF3C70002090E7000064
:102E50009A00002002460020002105E0044B5B5C44
:102E60000344D8B24B1CD9B29142F7DB7047000043
:102E70009A0000200D48008800F0010040B10C4885
:102E8000D0F8F0004FF6FF7108440949C1F8F0008E
:102E90000748D0F8F000054914310988084404496E
:102EA000C1F8F0000846D0F8F00070471008004064
:102EB0008000002010B5044604EBC40000EB0410B1
:102EC0000122C2EB800081B24FF47A70FFF7CAF999
:102ED00001200149C87510BD8000002010B50246D0
:102EE000012000E050430B1EA1F10104E1B2F9D131
:102EF00010BD00000948008820F001000749088043
:102F00004FF6FF7005491C31088000200349143139
:102F100008800349C1F8F000704700001008004025
:102F20008000002070B51D48008800F40040002893
:102F300033D01A4805780020194948551948816846
:102F40001748884704461CB91649C868804721E0DD
:102F5000134800F0FBF80546012D00D02C46CCB1FB
:102F6000012C06D0022C08D0032C0AD0042C10D13E
:102F70000BE00DA0FDF788F90BE00EA0FDF784F93A
:102F800007E00FA0FDF780F903E010A0FDF77CF942
:102F900000BF00BF00200149088070BD2C00002048
:102FA0008C01002080000020BAAFCAFDB4EDCEF342
:102FB000210D0A00B2CECAFDB4EDCEF3210D0A00F8
:102FC000B2CECAFDCCABB6E0210D0A00CEB4D5D24C
:102FD000B5BDC6A5C5E4B5C4BAAFCAFD210D0A008A
:102FE0000146491C00E0491C0878202801D100292D
:102FF000F9D1087870472DE9F04F05460F460026B5
:103000004FF00A09B3462C460020386034E020789F
:10301000392802DC2078302811DA28782D2802D0CF
:1030200028782B2800D156B12078462802DC207859
:10303000412804DA2078582817D1012E15D120789C
:10304000412801DB4FF0100928782D2803D14FF0DB
:10305000020B6D1C0FE028782B2803D14FF0010BD9
:103060006D1C08E0701CC6B205E0207800B904E0D1
:103070000120BDE8F08F641CC9E700BF2C46B9F100
:10308000100F0FD1032E01DA0220F2E7207830284A
:1030900006D16078582803D1A41CB01EC6B204E043
:1030A0000320E6E70EB90420E3E71BE00EB1701E33
:1030B000C6B22078392806DC2078302803DB207857
:1030C000A0F1300A02E02078A0F1370A31464846E4
:1030D000FFF704FF39680AFB00103860641C207891
:1030E00000B900E0E2E700BFBBF1020F04D138688D
:1030F000C0F10008C7F800800020BAE702460AE0E5
:1031000010780B78984201D001207047107800B9F0
:1031100002E0521C491CF3E700BF0020F5E706E07F
:1031200002780A70027802B902E0401C491CF7E7F5
:1031300000BF70470146002005E00A7802B903E0AD
:10314000421CD0B2491CF8E700BF704710B58CB0E4
:1031500004461E230BAA03A92046FFF7F9FC0090A2
:10316000009810B101200CB010BD9DF82C00044453
:1031700000200B900EE040489DF82C2050F82210C3
:1031800003A8FFF7BBFF00B908E09DF82C00401C26
:10319000C0B20B909DF82C000728ECD300BF9DF81F
:1031A0002C00072863D2DFE800F004053C5E65646C
:1031B000630000BF31A0FDF767F831A0FDF764F8A8
:1031C0003FA0FDF761F84EA0FDF75EF85CA0FDF7AB
:1031D0005BF86BA0FDF758F879A0FDF755F887A0CC
:1031E000FDF752F88CA0FDF74FF894A0FDF74CF8CE
:1031F00098A0FDF749F89DA0FDF746F8A2A0FDF7BD
:1032000043F8A8A0FDF740F8B4A0FDF73DF8C1A031
:10321000FDF73AF8CCA0FDF737F8D8A0FDF734F861
:10322000A2E216A0FDF730F8E4A0FDF72DF800208B
:103230000B900EE0F14800689DF82C2000EBC200D6
:103240004168EFA0FDF720F89DF82C00401CC0B2AB
:103250000B90EA48007D9DF82C108842EADC07A01C
:10326000FDF712F880E205A0FDF70EF8CCE179E257
:103270004DE221E2F4E10000440000200D0A0000CC
:103280002D2D2D2D2D2D2D2D2D2D2D2D2D2D2D2D6E
:103290002D2D2D2D2D2D2D2D55534D415254205674
:1032A000332E322D2D2D2D2D2D2D2D2D2D2D2D2D42
:1032B0002D2D2D2D2D2D2D2D2D2D2D200D0A0000E8
:1032C0002020202055534D415254CAC7D3C9414CE8
:1032D00049454E54454BBFAAB7A2B5C4D2BBB8F6B8
:1032E000C1E9C7C9B5C4B4AEBFDAB5F7CAD4BBA586
:1032F000BDBBD7E9BCFE2CCDA8B9FD200D0A00004E
:10330000CBFC2CC4E3BFC9D2D4CDA8B9FDB4AEBFA9
:10331000DAD6FACAD6B5F7D3C3B3CCD0F2C0EFC36E
:10332000E6B5C4C8CEBACEBAAFCAFD2CB2A2D6B4E6
:10333000D0D02ED2F2B4CB2CC4E3BFC90D0A00000A
:10334000D2D4CBE6D2E2B8FCB8C4BAAFCAFDB5C499
:10335000CAE4C8EBB2CECAFD28D6A7B3D6CAFDD7F9
:10336000D62831302F3136BDF8D6C62CD6A7B3D6E5
:10337000B8BACAFD29A1A2D7D6B7FBB4AE0D0A00D0
:10338000A1A2BAAFCAFDC8EBBFDAB5D8D6B7B5C8E7
:10339000D7F7CEAAB2CECAFD292CB5A5B8F6BAAFDA
:1033A000CAFDD7EEB6E0D6A7B3D63130B8F6CAE438
:1033B000C8EBB2CECAFD2CB2A2D6A7B3D60D0A0076
:1033C000BAAFCAFDB7B5BBD8D6B5CFD4CABE2ED614
:1033D000A7B3D6B2CECAFDCFD4CABEBDF8D6C6C931
:1033E000E8D6C3B9A6C4DC2CD6A7B3D6BDF8D6C6DA
:1033F000D7AABBBBB9A6C4DC2E0D0A00BCBCCAF55B
:10340000D6A7B3D63A7777772E6F70656E656476F8
:103410002E636F6D0D0A000055534D415254D3D0A9
:1034200037B8F6CFB5CDB3C3FCC1EE28B1D8D0EBD9
:10343000D0A1D0B4293A0D0A000000003F3A202064
:1034400020202020BBF1C8A1B0EFD6FAD0C5CFA272
:103450000D0A000068656C703A202020BBF1C8A1FD
:10346000B0EFD6FAD0C5CFA20D0A00006C69737414
:103470003A202020BFC9D3C3B5C4BAAFCAFDC1D05A
:10348000B1ED0D0A0A00000069643A2020202020D6
:10349000BFC9D3C3BAAFCAFDB5C44944C1D0B1EDA9
:1034A0000D0A0A006865783A20202020B2CECAFDB5
:1034B0003136BDF8D6C6CFD4CABE2CBAF3B8FABFDF
:1034C000D5B8F12BCAFDD7D6BCB4D6B4D0D0BDF890
:1034D000D6C6D7AABBBB0D0A0A0000006465633AD2
:1034E00020202020B2CECAFD3130BDF8D6C6CFD4C0
:1034F000CABE2CBAF3B8FABFD5B8F12BCAFDD7D6DD
:10350000BCB4D6B4D0D0BDF8D6C6D7AABBBB0D0AC2
:103510000A00000072756E74696D653A312CBFAA9D
:10352000C6F4BAAFCAFDD4CBD0D0BCC6CAB13B300A
:103530002CB9D8B1D5BAAFCAFDD4CBD0D0BCC6CA8D
:10354000B13B0D0A0A000000C7EBB0B4D5D5B3CC2F
:10355000D0F2B1E0D0B4B8F1CABDCAE4C8EBBAAF9A
:10356000CAFDC3FBBCB0B2CECAFDB2A2D2D4BBD896
:10357000B3B5BCFCBDE1CAF82E0D0A002D2D2D2DD2
:103580002D2D2D2D2D2D2D2D2D2D2D2D2D2D2D2D6B
:103590002D2D2D2D2D2D414C49454E54454B2D2D76
:1035A0002D2D2D2D2D2D2D2D2D2D2D2D2D2D2D2D4B
:1035B0002D2D2D2D2D2D2D200D0A00002D2D2D2DE5
:1035C0002D2D2D2D2D2D2D2D2D2D2D2D2D2D2D2D2B
:1035D0002D2D2D2D2DBAAFCAFDC7E5B5A52D2D2D4D
:1035E0002D2D2D2D2D2D2D2D2D2D2D2D2D2D2D2D0B
:1035F0002D2D2D2D2D2D2D2D200D0A00800000208C
:1036000025730D0A0000000059A0FCF73DFE0020C4
:103610000B901AE0664909689DF82C2001EBC20165
:1036200001AB02AA486803A9FFF7AEFA6048006838
:103630009DF82C1050F8312003A95EA0FCF724FE61
:103640009DF82C00401CC0B20B905948007D9DF89D
:103650002C108842DEDCAFF2DC30FCF715FE83E094
:10366000AFF2E830FCF710FE0BAA03A92046FFF7E3
:1036700005FA9DF82C00C8B9694603A8FFF7BBFC02
:103680000B909DF82C0020B94FA00099FCF7FCFD91
:103690000EE09DF82C00042801D0022063E54DA027
:1036A000FCF7F2FD01204249C87501E002205AE50D
:1036B00047A0FCF7E9FD57E045A0FCF7E5FD0BAAA4
:1036C00003A92046FFF7DAF99DF82C00C8B969462E
:1036D00003A8FFF790FC0B909DF82C0020B942A0A6
:1036E0000099FCF7D1FD0EE09DF82C00042801D0D4
:1036F000022038E53FA0FCF7C7FD00202C49C87523
:1037000001E002202FE532A0FCF7BEFD2CE030A046
:10371000FCF7BAFD0BAA03A92046FFF7AFF99DF805
:103720002C00C8B9694603A8FFF765FC0B909DF80B
:103730002C0078B91E49009881F8EC00084690F8F2
:10374000EC0018B130A0FCF79FFD07E035A0FCF7B6
:103750009BFD03E0022006E5022004E51CA0FCF727
:1037600093FD01E00120FEE400BF0020FBE4000027
:103770002D2D2D2D2D2D2D2D2D2D2D2D2D2D2D2D79
:103780002D2D2D2D2D2D2D2D2DBAAFCAFD204944C7
:10379000202D2D2D2D2D2D2D2D2D2D2D2D2D2D2D66
:1037A0002D2D2D2D2D2D2D2D2D2D2D2D200D0A00C6
:1037B0008000002025732069642069733A0D0A3067
:1037C00058253038580D0A004845583A3058255881
:1037D0000D0A00003136BDF8D6C6B2CECAFDCFD430
:1037E000CABE210D0A0000004445433A256C750D00
:1037F0000A0000003130BDF8D6C6B2CECAFDCFD423
:10380000CABE210D0A00000052756E2054696D6514
:103810002043616C63756C6174696F6E204F4E0D4F
:103820000A00000052756E2054696D652043616C7A
:1038300063756C6174696F6E204F46460D0A000017
:1038400010B500290AD00878002807D00548784428
:10385000FDF780FA002801D0002010BD024878440E
:1038600010BD00003E0500003605000021F00042BA
:10387000A2F16052B2F5801F01F0004328BFD2F1DF
:103880007F6C0BD95FEA001C43EAC20242EB507026
:1038900018BF704728BF20F001007047B2F5801FA5
:1038A000BCBF184670474FEA410C1CF5001F02D2FE
:1038B000084600F090B970B500F0B4F80000008937
:1038C000FFF7F6BF4FF00040A0F580007047000002
:1038D000DFF848C170B51CEA111E1EBF1CEA1315A3
:1038E0009EEA0C0F95EA0C0F00F06F8081EA03044A
:1038F00023EA4C134EEAD47E21EA4C1141F48011A4
:1039000043F48013AE44A1FB024CA0FB0365AEF16F
:103910007F7E361955EB0C05A1FB034C4CF10003DF
:10392000A0FB021C16EB0C06654153F10003094293
:1039300018BF46F0010613F4007F0BD14FEA0331A4
:103940004FEA0530340341EA155140EA16506FF052
:1039500003020AE04FEAC3214FEAC520F40241EA1C
:10396000555140EA56506FF0020202EB2E4201EB35
:10397000025585EACE710AD05FEA440C18BF24F0E4
:10398000004450F1000041F1000120EAD47040F2FF
:10399000FE7C624500D270BDA84214BF4FF0804447
:1039A0004FF04044002E08BF0024BEF1806FA8BF36
:1039B000A1F1C041BDE8704080F282804FF000006C
:1039C00001F1C04101F0004170479EEA0C0F0CEA82
:1039D000131518BF95EA0C0F06D04FF0000081EACE
:1039E000030E0EF0004170BD00F01CF88900013E8E
:1039F00000F007B800F009B84FEA430C5FEA5C5CDE
:103A000008D081EA030100F05BB84FEA410C5FEA9D
:103A10005C5CF6D14FF00000014970470000FF07E1
:103A20000000F87F0EF1020E2EF0030E5EF8046B1C
:103A3000364205D4012A43EB030515F5001F12D8C1
:103A4000012841EB010C1CF5001F0CD80ED14FEAE8
:103A5000D17C15F5001F0CEB4C0C0CF1020C08BFCF
:103A60004CEBD37C04E04FF0080C01E04FEAD37C30
:103A70000CEB4C0526FA05F606F00706B6F1040C29
:103A800006D20EEB860CBDE870404CF0010C60478E
:103A9000DFE80CF0090B02024FF000414FF000008C
:103AA000A1F5002170BD19461046012851EB010413
:103AB00018BFD4F5001484BF002001F0004170BD90
:103AC0000808A0F500114FEA3101704743004FEAA2
:103AD000D30C4FEA3C0C43401FBF40070CF1605130
:103AE00013F0FE4F70471CF0006F03D100200CF064
:103AF000004170470CF0004343EA507010B540EAB3
:103B0000CC0000F022F800BF000000924FEA000154
:103B1000FFF7D6BF4FF000414FF00000A1F50021A4
:103B200070470000B0FA80F310FA03F2C3F19D036E
:103B30000AD0D90501EB1220530638BF704700F1B7
:103B4000010008BF20F0010070470EF1020E2EF0B8
:103B5000030E5EF8044B244204D44FEA4102B2F152
:103B60007F4F11D84FEA4003B3F17F4F0CD80ED1ED
:103B70004FEAD07CB2F17F4F0CEB4C0C0CF1020CF5
:103B800008BF4CEBD17C04E04FF0080C01E04FEA99
:103B9000D17C0CEB4C0324FA03F404F00704B4F1D9
:103BA000040C06D20EEB840CBDE810404CF0010C66
:103BB0006047DFE80CF0070802024FF00040A0F574
:103BC000800010BD0846420018BFD2F1807288BF45
:103BD00000F0004010BDFF2141EAD050C005704701
:103BE000FCF710BE30313233343536373839414284
:103BF000434445464030580030313233343536374F
:103C000038396162636465664030780004000008FA
:103C10000000000000000002000100001000000091
:103C200002400000000000A000000000054000006D
:103C3000000000C8000000000C4000000000409C94
:103C400000000000194000000020BCBE0000000081
:103C500034400000BFC91B8E00000004B5400000C6
:103C6000504BCFD06607E2CF010000006C4100004E
:103C70003E8251AADFEEA73401000000D9420000C5
:103C8000DCB5A0E23A301F97FFFFFFFFB44500000C
:103C9000FD25A0C8E9A3C14FFFFFFFFFFF3F0000C4
:103CA0000000008000000000FF3F000000000080D6
:103CB000000000003F0000006465630069640000CC
:103CC00072756E74696D650068656C700000000047
:103CD0006C6973740000000068657800766F696431
:103CE00020445256415F58286C6F6E67206E756D88
:103CF0002C753136206672657175656E63792900A1
:103D0000766F696420445256495F58286C6F6E671D
:103D1000206E756D2C753136206672657175656E15
:103D200063792900766F696420445256415F5928AF
:103D30006C6F6E67206E756D2C75313620667265FE
:103D40007175656E63792900766F696420445256F7
:103D5000495F59286C6F6E67206E756D2C75313612
:103D6000206672657175656E63792900A83D00084B
:103D7000000000208C0100006C0100080C3E0008CF
:103D80008C0100202C070000C80100081C00000066
:103D900043000000F8FFFFFF0C0000000E000000D1
:103DA0000F0000002E000000011184A24A04E00967
:103DB00001020304060708092916691A25020406E8
:103DC0000813B43C1B08C8041AD0041ABC041AD83F
:103DD000041AB8041AC00413A9181B08DC08133904
:103DE000191208123D1B08F1101A24081A95101A0E
:103DF000480822601420B52E140845271B08F50436
:0C3E000013252F1A088102F401000000B5
:0400000508000131BD
:00000001FF
